:10000000F8FF0020110400007B3500007B35000064
:100010007B3500007B3500007B3500007B35000020
:100020007B3500007B3500007B3500007B35000010
:100030007B3500007B3500007B3500007B35000000
:100040007B3500007B3500007B3500007B350000F0
:10040000FFFFFFFFFFFFFFFFFFFFFFFFFEFFFFFFFD
:1004100062B603F01DFEFEE72DE9F04FA1B0804665
:10042000002017461D4602910B900DF1440A6FF013
:1004300000490AE017F8011B0298C0470028029003
:1004400000F0AB820B98401C0B90387808B90B98E1
:10045000A5E22528EED1002005900690079008908F
:1004600009900A9001E040F0010017F8011F2029CF
:10047000F9D023290DD02B2904D02D2906D03029DD
:100480000AD00CE040F0020080B2EEE740F0040039
:10049000FAE740F00800F7E740F01000F4E72A29F7
:1004A0000ED12968296051F8042B2960002A0D9289
:1004B00004D5514240F004000D9180B27F1C11E040
:1004C00000210D9109E00D99494505D001EB81030B
:1004D00002EB430130390D917F1C3A78A2F13001D3
:1004E0000A29F0D339782E2903D04FF0FF310C912F
:1004F0001DE017F8011F2A2907D1296829607F1CF0
:1005000051F8042B29600C9211E000210C9109E0B4
:100510000C99494505D001EB810302EB43013039C9
:100520000C917F1C3A78A2F130010A29F0D3ADF882
:1005300038000FF66440397800F03CFE08B117F837
:10054000010B8DF83A009DF83A00682802BF39780F
:100550006829622005D06C2804BF38786C2803D144
:1005600071208DF83A007F1C11A8049017F8014BF8
:10057000B4F1250029D01C3800F0C280001F0228E9
:1005800040F2BE80133800F0E380093800F0B880F4
:10059000801E00F04A81401E00F02381401E022888
:1005A00040F2AE80001F00F01C81401F79D0401E39
:1005B00000F0CE80401E24D0C01E0BD0801E00F064
:1005C000C780C01E00F0C48039E125208DF84400AA
:1005D00001203DE12868286050F8046B28600396EC
:1005E0000C9C002C04D5304600F0F0FD044606E0DB
:1005F00022460021304600F005FE00B1841B06941F
:1006000027E1296829603C2451F8040B2960002166
:10061000CDE9000111A80390DDE90001049E11B9A4
:1006200008B90C9AB2B10206120FA0EB02123032D6
:10063000D2B2631E3A2AA8BF2732000940EA0170ED
:1006400009099A5508BF00281C4603D0039AA3192C
:100650009A42E8D3A0190390C4F13C010C9806918A
:10066000814209DA401A08904FF6EF71BDF8380060
:100670000840ADF83800ECE0002840F1EA809DF831
:10068000380000F01400102840F0E3800D98059A1F
:10069000801A089A801A441A012CC0F2DA80089451
:1006A000D7E09DF83A0062281AD0682806D06A2858
:1006B0000CD06C281CD0712808D019E0286828605C
:1006C00050F8041B28600B980880C2E02868286056
:1006D00050F8042B28600B98C117C2E90001B8E05C
:1006E0002868286050F8041B28600B980870B0E058
:1006F0002868286050F8041B28600B980860A8E060
:100700002868C01D20F007022A60D2E900010832E3
:100710002A60CDE90001002902D505982D210AE0C3
:10072000BDF83800810702D505982B2103E0C007EA
:1007300005D50598202100F80A10401C059011A845
:10074000059908180390214600A800F0E5F980E01B
:100750009DF83A006C280DD0712818BF6A2809D17D
:100760002868C01D20F007022A60D2E90001083283
:100770002A6005E02968296051F8040B29600021EE
:10078000CDE900019DF83A00682803D1DDE90001B8
:1007900080B20BE0622803D1DDE90001C0B205E0C0
:1007A000742818BF7A2804D1DDE900010021CDE9C1
:1007B00000019DF8380000072ED5DDE90001002971
:1007C00008BF002828D044F02000782824D10598BC
:1007D000302100F80A10401C411C059100F80A4025
:1007E0001AE09DF83A00294600F0DCF8CDE9000156
:1007F000002902DA05982D210AE0BDF838008107AA
:1008000002D505982B2103E0C00705D505982021C6
:1008100000F80A10401C059011A8059908180390CB
:10082000214600A800F0F5F813E0012005902868A3
:10083000286050F8041B28608DF8441009E025203A
:100840008DF84400012005901CB18AF80140022077
:1008500005900D980599401A0899401A0699401A72
:100860000999401A0799401A0A99441A9DF83800C4
:10087000400710D420208DF84000002609E0012315
:1008800010AA00A9404600F06FFC002840F08580C7
:10089000761CA642F3DB059E0DF1440B0AE01BF823
:1008A000011B0298C0470028029076D00B98401C8C
:1008B0000B90761E002EF2D130208DF840004FF0C4
:1008C000000B089E09E0012310AA00A9404600F091
:1008D0004BFC002861D10BF1010BB345F3DB069E05
:1008E000DDF80CB00AE01BF8011B0298C047002895
:1008F000029052D00B98401C0B90761E002EF2D125
:1009000030208DF840004FF0000B099E09E00123D4
:1009100010AA00A9404600F027FC00283DD10BF1A9
:10092000010BB345F3DB03980699079E01EB000B1F
:1009300009E01BF8011B0298C047029068B30B98AE
:10094000401C0B90761E002EF3D130208DF8400015
:100950004FF0000B0A9E08E0012310AA00A94046B0
:1009600000F002FCC8B90BF1010BB345F4DB9DF8B4
:10097000380040077FF569AD20208DF84000002643
:1009800000E0761CA642BFF660AD012310AA00A9C4
:10099000404600F0E9FB0028F3D04FF0FF3021B0D3
:1009A000BDE8F08F622826D068281DD06A2808D0BC
:1009B0006C2827D0712804D0742823D07A280CD032
:1009C00020E00868C01D20F007000860D0E900237F
:1009D000083008601946104670470A680A6052F8E5
:1009E000040B0A60002170470A680A6052F8040B81
:1009F0000A6000B20BE00A680A6052F8040B0A6051
:100A000040B204E00A680A6052F8040B0A60C11799
:100A100070472DE9FA4E05460A462F696F2A08BF2E
:100A2000082405D041F02000782814BF0A2410249F
:100A30003C26D5E90001642A18BF692A81468A4606
:100A400005D1002903DAD9F100096AEB4A0ABAF1A3
:100A5000000F08BFB9F1000F0CD1286B50B9082C5A
:100A600036D195F83800000732D530203B2687F87C
:100A70003B002DE0E31748465146224600F0EEFBCE
:100A8000A4FB0023A9EB02023032D2B2A6F1010B83
:100A90003A2A5E4603DB9DF80030513B9A188146A6
:100AA0005FEA010A0BF8072008BFB9F1000F03D075
:100AB000E868F1198842DDD3082C09D195F838008F
:100AC000000705D5F05D302802D0761E3020F055A5
:100AD000C6F13C00A861F119E960296B884208DA87
:100AE000081A28624FF6EF71288F08402887BDE862
:100AF000F38E00290ED595F8381001F01401102955
:100B000008D1696B6A69891A2A6A891A0E1A012E34
:100B1000A8BF2E62BDE8F38E2DE9F24F04468EB0D9
:100B2000D4E90001CDE9020104AF9DF8380040F09E
:100B3000200BBBF1610F0AD0206B002848BF0620B4
:100B400004D408BFBBF1670F01D1012020636168A5
:100B5000C1F30A5040F2FF7290421CD1080304BF57
:100B60002068002809D10320A0619DF83800613871
:100B70001A2836D30FF2346108E00320A0619DF8F3
:100B8000380061381A2829D30FF21861E06803226F
:100B900000F0DCFBBEE1012816DA204600F011FC73
:100BA000012811DB00250020BBF1610F20D1E16895
:100BB000302201F8012B4A1CE2609DF83820612A9E
:100BC0000CBF782258220FE0626840F2FE3161F3D8
:100BD0001E52451A62604FF0FF30E5E70FF2C05138
:100BE000D4E70FF2C451D1E70A706169891C6161D1
:100BF00010B90026002584E1BBF1610F40F0978019
:100C0000206BD4E900AB00284CBF2126461CDDE94F
:100C100002010022002300F0F5FB36B23ABF8BF050
:100C20000040CDE902A0CDE902AB06F101082D1F7D
:100C30008DF810200DF1110700E0C71DB8F1010F6C
:100C400033DBDDE902010022002300F0F3FB2CD2AC
:100C50001C2102A800F006FCDDE9020100F08EFC78
:100C6000A8F10708B8F1010F814609DB00F0B2FCDA
:100C700002460B46DDE9020100F0C4FCCDE90201A9
:100C8000F81D072105E009F00F0200F8012D4FEAD9
:100C90002919B9F1010F01DB491EF4D5491E5CBFCA
:100CA000002200F8012DF9D5C7E70DF11100391A1E
:100CB000B142B8BF0E4636B230000DF111072FD445
:100CC000884206DA04A9411849780829A8BF0F21EB
:100CD00000DA002104AA821800E0761E12F8013919
:100CE000401E8B42F9D00F2904D104A941184A783B
:100CF000521C4A70002802D504AF761C2D1D36B256
:100D0000701E0DD4C1190A783032D2B23A2A03DBF0
:100D10009DF838303A3B9A18401E01F80129F2D567
:100D2000206B002840F1ED80701E2063E9E0DDE9D2
:100D300002010022002300F065FB3CBF81F000416E
:100D4000CDE902012DB247F2975068434B49DFF8D5
:100D5000309190FBF1F52DB2C5F1070ABAF1010F00
:100D600090461CDBDDE902675FEACA7007D54246A0
:100D70004B463046394600F005FD06460F464046D4
:100D8000494642464B464FEA6A0A00F0FBFCBAF17C
:100D9000000F80468946E7D1CDE9026724E0CAF119
:100DA000000A0026374F14E05FEACA7007D54246B2
:100DB0004B463046394600F0E5FC06460F464046B5
:100DC000494642464B4600F0DDFC4FEA6A0A80463F
:100DD0008946BAF1000FE7D1DDE9020132463B4610
:100DE00000F0A2FDCDE90201BBF1660F216BDFF837
:100DF00098900CBF05F10A0006204618142EA8BFD3
:100E0000132630208DF810000DF11107012E3DDB67
:100E1000DDE9020100F0C8FB07F1080104220A2302
:100E2000B0FBF3F303EB8307A0EB4700303001F88E
:100E3000010C0A20B3FBF0F000EB8007A3EB4703A3
:100E40003033521E01F8023DE9D1083E012E01F176
:100E50000807DBDBDDE9020100F0A6FB00F0C4FBC4
:100E600002460B46DDE9020100F0CCFB00224B46B6
:100E700000F088FCCDE90201CAE700BFA0860100AE
:100E8000000024400000F03F84D797410DF111008D
:100E9000381A0DF1110702E0401E6D1E7F1C3978D3
:100EA0003029F9D0BBF1660F02D12DB2691C04E0E4
:100EB000BBF1650F0CBF01210021226B8E1836B2E9
:100EC000B042B8BF064636B231001AD4814204DAC5
:100ED000C85D3528A8BF392000DA3020CA19521E53
:100EE00000E0761E12F80139491E8342F9D03928F4
:100EF00002D1C85D401CC855002902D57F1E761C52
:100F00006D1C2DB29DF83810009533B23A4620463C
:100F100000F003F80FB0BDE8F08F2DE9F04786B080
:100F200006468A4690461D4600F047FE012D406A5F
:100F3000376B90F8009002DA01250FF274284AF01E
:100F40002000BDF93840662808BF641C12D067280D
:100F500076D114F1040F79DBBC4277DA96F83800C9
:100F6000641C000702D4BD42B8BF2F4624B23F1B09
:100F700048BF002724B2F068B169012C21DA4A1C6D
:100F800030230B54012F03DA96F83810090702D5E5
:100F900002F80090521CE742B8BF7C4224B2E71925
:100FA0006142AF42B2617162B8BF3D46B3692DB2D2
:100FB000F5612A464146181800F0C8F9781BB0625E
:100FC000BBE00818A54216DA2A46414600F0BEF9F1
:100FD000B1696918601B012FB161706203DA96F87C
:100FE0003800000705D5F06801F80090F069401C52
:100FF000F061B762A1E02246414600F0A7F9B0696E
:1010000020182D1B012F03DA96F83810090703D595
:10101000F16800F80190401CB0612DB2AF42B8BF3A
:101020003D46F068B3692DB22A4604EB0801181852
:1010300000F08CF9B0692818B061781B70627CE010
:10104000BAF1610F14D14FF0700A16E0BD4204DA14
:1010500096F83810090758BF2F467F1E48BF002753
:10106000BAF1670F14BF4FF0450A4FF0650A04E06C
:10107000BAF1410F08BF4FF0500AB169F06818F893
:10108000013B0B544A1C012F05DA96F8381009076A
:1010900058BFB26115D502F80090531C012FB361FF
:1010A0000FDB6D1E2DB2AF42B8BF3D462DB22A46B2
:1010B0004146181800F04AF9B0692818B061781B49
:1010C0007062F068B1690918200081F800A004D4AA
:1010D0002B20487001F1020804E02D224A7001F132
:1010E00002086442002502AF08E00A2200A800F0CE
:1010F0007DFD019807F8010B6D1C009C21B20129B0
:10110000F3DA022D06DA4AF02000652804BF302009
:1011100008F8010B4DB9302008F8010B07E06D1EEF
:1011200002A8285C303008F8010B012DF7DAF068CE
:10113000B1690818A8EB0000F06196F8380000F0DB
:10114000140010280DD17069B1690818716A081867
:10115000F1690818B16A0818716B8842BCBF081A97
:10116000306206B0BDE8F087F8B504460D46164675
:101170001F46002004E0E86A401CE8627F1E002051
:1011800047B116F8011BA868A0470028A860F2D153
:101190004FF0FF30F2BD0000686A6C747A4C0000BA
:1011A0006E616E004E414E00696E6600494E46000B
:1011B000300001FE0278C9B28A421AB11CBF10F891
:1011C000012FF9E718BF00207047FE0100F101036D
:1011D000810704D010F8011B89B18107FAD1026898
:1011E000B2F10131914311F0803F04BF50F8042F58
:1011F000F6E710F8011B11B110F8011BFBE7C01A4C
:1012000070470000C9B2830706D0521E22D310F8DF
:10121000013B9942F7D11FE0083A13D302F10402CF
:1012200041EA012141EA014150F8043B121F21BF6C
:101230004B40A3F1013C2CEA030C1CF0803FF3D09F
:10124000C9B2001F083210F8013B521E28BF91EAB4
:10125000030FF8D818BF0120401E70471B4213D15E
:10126000094236D12AB18446B0FBF2F002FB10C22B
:10127000704700F0C3BCFCD30022002370470B0072
:101280000200002100207047904271EB030CF6D35E
:1012900070B5B1FA81F4B3FA83F52C1BA340C4F105
:1012A000200532FA05F63343A2405FF00046E640DF
:1012B00002E05B085FEA3202841A71EB030524BF87
:1012C000204629467641F4D302000B00300000216D
:1012D00070BD012ACFD970B5140C20D0B1FA81F4B9
:1012E000B2FA82F5C4F120046419B4F12006D6D311
:1012F000B2405FF00044F440002502E052085FEA8B
:101300003303C61A71EB020E24BF304671466441A6
:101310006D41F3D302000B002000290070BD0C4684
:10132000B1FBF2F102FB11452D0445EA1045B5FB76
:10133000F2F402FB145580B240EA0545B5FBF2F029
:1013400002FB105240EA044070BD000062B38B07FC
:1013500008D0521E11F8013B00F8013B00F0248038
:101360008B07F6D1830740F0208000BF103A07D3E7
:1013700030B4B1E83810103AA0E83810F9D230BCD7
:10138000530724BFB1E80810A0E8081044BF51F883
:10139000043B40F8043BD20724BF31F8022B20F86D
:1013A000022B44BF0B7803707047083A07D3B1E8AB
:1013B0000810083A40F8043B40F804CBF7D2530732
:1013C000E4E730B4436803F0004201211B031B0B28
:1013D000436004BF0368002B08D10DE00368DD0FF4
:1013E00045EA440444605B000360491E4468E3022C
:1013F000F4D523031B0B436043681A43426008463D
:1014000030BC70474FF4001C1CEB410F94BF1CEB29
:10141000430F09E041EA030C50EA4C0C52EA0C0C71
:1014200003D2994208BF9042704714BF8B42824258
:10143000704700004FF4001C1CEB410F94BF1CEBE5
:10144000430F09E041EA030C50EA4C0C52EA0C0C41
:1014500003D28B4208BF8242704714BF9942904228
:101460007047000070B504460D466068C0F30A502E
:1014700040F2FF71884207D16068000304BF206812
:10148000002817D0022070BD20B92046FFF799FF31
:10149000012868DA012D0FDB40F2FF71091A8D4235
:1014A0000AD3606800284CBF9FED300B9FED310BD5
:1014B00084ED000B012070BD4142A942616806DA4B
:1014C0006FF31E51401941EA0050606042E0401E37
:1014D00063684519012205F1350062F31F53352871
:1014E00001F00041636003D361600020206070BDA3
:1014F000002215F11F0F04DA226823600020203536
:101500006060684214D0521E25689241C0F12003E9
:10151000D2439D4045EAD272256825FA00F66568F7
:1015200005FA03F333432360636823FA00F565602B
:1015300060680843B2F1004F606003D80DD1207895
:10154000C0070AD52068401C2060206828B9606860
:10155000401C60604FF0FF3070BD6068884204BF7F
:1015600020680028F6D1002070BD00BF00000000F8
:101570000000F0FF000000000000F07FF446400D86
:1015800040EAC120490006D200F014F8004248BFEA
:101590006FF00040604700F00DF84FF000418842C6
:1015A0008CBF084640426047400D40EAC1204900D8
:1015B00080F00D8040F00040490DA1F58061491C8C
:1015C00005D4D1F11F0154BFC840C01770474FF078
:1015D00000007047010040F10980F446404200F0ED
:1015E00005F851F000416047010000BF09D0B0FA92
:1015F00080F18840C91CC1F58461090501EBD02147
:1016000040057047F0B44FF0004591EA030F44BF26
:101610006B4000F0F5BA00BF841A71EB030604D2E8
:101620006E40001BB141121973414FF4001C1CEBBA
:10163000410F34BF7CEB430684E00C0DA4EB135642
:10164000362E7DDC012E43DC45EAC32343EA5253A8
:1016500012BFD20292025B08240545EAC12141EA89
:101660005051D2EBC020994125D407D1B0FA80F671
:1016700010FA06F164D00020203608E0B1FA81F6B5
:10168000B140C6F1200220FA02F21143B0404FEA05
:10169000F474B4EB465434F001064FEA74040AD8EB
:1016A000D6F50016760D04F00044F04061FA06F21B
:1016B0005040F1404840C00A40EA415021F000410A
:1016C00028BF5FEA500550F1000044EBD12137E01C
:1016D00045EAC323DB0A45EAC121C90AB6F1200560
:1016E0000EDD42EA0242120CC5F1200603FA06F6AC
:1016F000EB4042EA06056D42984161F100010DE0C0
:1017000062FA06F5F240554063FA06FC82EA0C02E2
:10171000F3405A406D42904161EB030111F4801F88
:1017200005D1641E620502D06D004041494121F49B
:101730008011430875F1004350F1000041EB045162
:10174000F0BC70471CEB410F15D223F0004352EA66
:1017500043060BD04FEA4C0CBCEB410F04D80C0DE8
:10176000661E342EB7DDEBE7801A994150EA410638
:1017700008BF0021E4E708BF1CEB430F28BF6FF050
:101780000001DDE7B0B581EA030C0CF0004C40F23B
:10179000FF7515EA11541DBF15EA1357AC42AF424D
:1017A00039E0E41923EA455343F48013C90241F0B8
:1017B000004141EA505EC7021100A7FB0202002867
:1017C0004FF00000EEFB01204FF00001E3FB07218A
:1017D00018BF42F00102401800214941E3FB0E010D
:1017E000A4F580640F0302D252004041494154F1F4
:1017F00001046CDD470872F1004250F1000051EB2A
:101800000451A1F580115CBF41EA0C01B0BD4CEA66
:1018100005510020B0BD05EA1357AC4214BFAF42DA
:1018200041E050EA410E1CBF52EA430E02E061461D
:101830000020B0BD24423C441BD15FEA070EF6D025
:10184000090302BF01460020AEF1140EB1FA81F780
:10185000AEEB070401FA07FE0C37C7F1200100FACE
:1018600007F7C8404EEA000E23EA455343F48013BD
:10187000A2E733F00043B3FA83F704BFB2FA82FE63
:1018800077440B3FE41BB7F1200E2FBF02FA0EF393
:10189000BB40C7F1200E22FA0EFE38BF43EA0E030A
:1018A000BA40641C82E750EA410E14BF52EA430E6C
:1018B0006FF000014FF4001717EB430F8ABF194672
:1018C00017EB410FB5E74CEA05510020B0BDD4F14C
:1018D0000104B4F120070FDAC4F12007520828BF31
:1018E00042F0010210FA07F501FA07F7E1BF2A43B7
:1018F000E0403843E1400FE0352C98DCC7F120048C
:1019000052EA400220FA07F218BF42F0010231FA0F
:1019100007F0A1400A43002172F1004250F100009B
:1019200051EB0C01B0BD00002DE9F04140F2FF7514
:1019300081EA030C0CF0004C15EA11541DBF15EAA6
:101940001357AC42AF42E9E0BC41C1F31301C3F30A
:101950001303801A994143F4801304D2641E40009B
:10196000494180185941C90241EA5051B1FBF3F68F
:1019700003FB1611A2FB0675D7EBC020A94102D2CA
:10198000761E80185941C90241EA5051B1FBF3FE5D
:1019900003FB1E11A2FB0E75D7EBC020A94103D299
:1019A000AEF1010E80185941890241EA9051760545
:1019B00046EA8E2EB1FBF3F603FB1611A2FB067569
:1019C000D7EB8020A94102D2761E80185941C90266
:1019D00041EA50514EEA060EB1FBF3F603FB161135
:1019E000A2FB0675D7EBC020A94102D2761E801853
:1019F0005941C90241EA5051B1FBF3F703FB1711FA
:101A0000A2FB0735D3EBC020A94167F100070CBF4B
:101A1000004247F0010766F3D5274FEA1E31B808A8
:101A200014F5806414DDBD0775F1004250EB0E50D3
:101A300051EB045111F5801F5CBF41EA0C01BDE878
:101A4000F0814CF07F6141F0E0410020BDE8F08181
:101A5000BD076D0840EA0E5041F48011D4F1010435
:101A6000B4F120060ADAC4F120060200E04001FACF
:101A700006F3E1401843B24015430EE0342C14DC69
:101A8000C6F1200445EA40056D0820FA06F2154328
:101A900021FA06F0A1400D43002175F1004250F1FA
:101AA000000051EB0C01BDE8F08100205FEA0C0161
:101AB000BDE8F081CFB992185B41B3FA83F704BF58
:101AC000B2FA82F6BF190B3FB7F120062FBF02FA18
:101AD00006F3BB40C7F1200622FA06F638BF3343AF
:101AE000BA401CB1E419641E2FE77F4231F0004177
:101AF000B1FA81F404BFB0FA80F6A4190B3CB4F13A
:101B000020062FBF00FA06F1A140C4F1200620FAFA
:101B100006F638BF3143A0403C1B16E7AC421ABF63
:101B200005EA1357AF4214E050EA41061CBF52EADF
:101B30004306BFE750EA4107304661461CBF41EA11
:101B40000551BDE8F08152EA430C08BFC143BDE82E
:101B5000F08100204FF4001616EB410F98BF16EBF2
:101B6000430F08BF16EB410F24BFC14305E016EB3E
:101B7000430F0CBF61464CEA0551BDE8F0810000FF
:101B800080B5134800F0A6F80FF24C020FF24401A2
:101B90000160426241600FF24402826381600FF291
:101BA0004402C1600161416181618162C16201637E
:101BB0004163C2630164416401BD10B5044800F093
:101BC00089F80446206808B9FFF7DAFF204610BDFF
:101BD0001411FF1F000000002E00000066616C73EE
:101BE00065000000747275650000000091FBF2F35F
:101BF00003FB1211C0E9003170470000704700007C
:101C0000841A71EB030603D2001BB1411219734110
:101C10004FF4001C1CEB410F34BF7CEB430443E04A
:101C20000C0DA4EB1356352E50DC45EAC323DB0A1A
:101C300045EAC121C912B6F120050DDD63FA05F6AA
:101C4000EB4086EA0305124218BF45F00105C018B3
:101C500051F100010CD213E062FA06F5F240554052
:101C6000F3415A40B340F3405A408018594107D3DA
:101C700049085FEA30005FEA350528BF45F00105F5
:101C800001F58011420875F1004250F1000041EB6E
:101C90000451F0BC4FF4001C1CEB410F38BF7047DF
:101CA0000020090D090570471CEB410F10D252EAC4
:101CB00043060BD0BCEB410F05D80C0DAB43661EA1
:101CC000342EB5DD02E0AB4380185941F0BC7047BB
:101CD000F0BC7047704700000000000000000000EA
:101CE00000000000000000000000000000000000F4
:101CF0000000000000004E6F6E4D61736B61626CFE
:101D00006500000000486172644661756C740000F3
:101D1000000000004D656D4D616E6167656D656E1B
:101D20007400004275734661756C74000000000019
:101D3000000055736167654661756C7400000000B2
:101D40000000000000000000000000000000000093
:101D50000000000000000000000000000000000083
:101D60000000000000000000000000000000000073
:101D70000000000000000000000000000053564377
:101D8000616C6C000000000000000000446562759A
:101D9000674D6F6E69746F720000000000000000F4
:101DA0000000000000000000000050656E64535603
:101DB0000000000000000000005379735469636B59
:101DC0000000000000000000444D41300000000011
:101DD00000000000000000444D4131000000000000
:101DE000000000000000444D4132000000000000EF
:101DF0000000000000444D413300000000000000DE
:101E000000000000444D41340000000000000000CC
:101E1000000000444D4135000000000000000000BB
:101E20000000444D413600000000000000000000AA
:101E300000444D4137000000000000000000000099
:101E4000444D413800000000000000000000004444
:101E50004D41390000000000000000000000444D2A
:101E600041313000000000000000000000444D41FE
:101E7000313100000000000000000000444D4131FD
:101E80003200000000000000000000444D413133EA
:101E900000000000000000000000444D413134000B
:101EA000000000000000000000444D4131350000FA
:101EB0000000000000000000444D415F4572726F59
:101EC000720000000000004D434D000000000000C3
:101ED0000000000000004654464C000000000000D6
:101EE0000000000000526561645F436F6C6C6973B1
:101EF000696F6E004C56445F4C565700000000005E
:101F00000000004C4C5700000000000000000000E2
:101F100000005761746368646F6700000000000090
:101F200000524E47000000000000000000000000CA
:101F3000493243300000000000000000000000496A
:101F40003243310000000000000000000000535048
:101F5000493000000000000000000000005350491C
:101F60003100000000000000000000005350493222
:101F7000000000000000000000000043414E305F00
:101F80004F525F4D425F6275660043414E305F4283
:101F900075735F4F666600000043414E305F4572C7
:101FA000726F72000000000043414E305F54785F52
:101FB0005761726E696E6743414E305F52785F576A
:101FC00061726E696E6743414E305F57616B655F4A
:101FD0005570000000526573657276656435310096
:101FE000000000005265736572766564353200004A
:101FF00000000043414E315F4F525F4D425F6275BA
:10200000660043414E315F4275735F4F6666000064
:102010000043414E315F4572726F72000000000054
:1020200043414E315F54785F5761726E696E67430A
:10203000414E315F52785F5761726E696E674341FE
:102040004E315F57616B655F5570000000526573DC
:10205000657276656435390000000000526573656D
:1020600072766564363000000000005541525430ED
:102070005F52585F54580000000055415254305F81
:1020800045525200000000000055415254315F5249
:10209000585F54580000000055415254315F45527A
:1020A0005200000000000055415254325F52585F08
:1020B00054580000000055415254325F45525200BE
:1020C000000000000055415254335F52585F54588D
:1020D0000000000055415254335F45525200000049
:1020E00000000055415254345F52585F545800006C
:1020F000000055415254345F455252000000000028
:102100000055415254355F52585F5458000000004A
:1021100055415254355F45525200000000000041C5
:102120004443300000000000000000000000414473
:1021300043310000000000000000000000434D504B
:10214000300000000000000000000000434D50314E
:102150000000000000000000000000434D5032006D
:102160000000000000000000000046544D30000058
:1021700000000000000000000046544D3100000047
:10218000000000000000000046544D320000000036
:1021900000000000000000434D540000000000005B
:1021A0000000000000005254430000000000000046
:1021B0000000000000526573657276656438330074
:1021C00000000000504954300000000000000000F2
:1021D00000000050495431000000000000000000E1
:1021E00000005049543200000000000000000000D0
:1021F00000504954330000000000000000000000BF
:102200005044423000000000000000000000005573
:102210005342300000000000000000000000555351
:1022200042444344000000000000000000454E45C9
:10223000545F313538385F54696D6572454E455489
:102240005F5472616E736D69740000454E45545F52
:1022500052656365697665000000454E45545F45EB
:1022600072726F72000000000049325330000000AB
:10227000000000000000000053444843000000003C
:102280000000000000000044414330000000000056
:102290000000000000004441433100000000000045
:1022A000000000000054534930000000000000000E
:1022B000000000004D434700000000000000000047
:1022C0000000004C5054696D657200000000000071
:1022D000000052657365727665643130320000002B
:1022E00000504F5254410000000000000000000068
:1022F000504F525442000000000000000000005007
:102300004F52544300000000000000000000504FF6
:1023100052544400000000000000000000504F52E2
:102320005445000000000000000000005265736585
:102330007276656431303800000000526573657252
:10234000766564313039000000005265736572763D
:102350006564313130000000005265736572766546
:102360006431313100000000526573657276656436
:102370003131320000000052657365727665643158
:102380003133000000005265736572766564313147
:102390003400000000526573657276656431313532
:1023A0000000000052657365727665643131360055
:1023B0000000005265736572766564313137000044
:1023C0000000526573657276656431313800000033
:1023D0000052657365727665643131390000000022
:1023E00000F00F4040F00F4080F00F40C0F00F4071
:1023F00000F10F4066000A1D32000701640007105B
:102400006E000406780004088200040A8C00040CA4
:102410009600040EA0000410AA000412B4000414D4
:10242000BE000416C8000418D200041ADC00041C04
:10243000E100041DE600041EEB00041FF400031776
:10244000FA000318130101062C0102140001090807
:102450000090044000A0044000B0044000C00440CC
:1024600000D0044000A0064000B0064000C0064076
:1024700000D0064000A00E4000B00E406A6E6B6CAB
:10248000676D4E4F34353637010000000DC1110025
:1024900009030CD01240173F185019031A78320064
:1024A000A00A63E0ACFF650C6600670029142C1ECF
:1024B0002A007E0C7F16802A814E8261836F847B86
:1024C0008586868E879788A489AF8AC58BD78CE846
:1024D0008D204A00491347084B144C174605229992
:1024E0002303A6049B009CFFAB069E119F020000E5
:1024F0003100000002040101C410FF1F1411FF1F6E
:10250000C410FF1FC410FF1FC410FF1F690CFF1F62
:10251000500CFF1F00000000000000000000000041
:1025200000000000000000000000000000000000AB
:102530000000000010B40200106800230C689C42E8
:1025400008DB52F82340A04202DA52F82340200070
:102550005B1CF3E710BC704770B4002243689A42DA
:1025600048DA0368846804FB023393F90040012CC5
:102570000BD10C68641C0C6000240D6811EB850500
:102580006C600C6811EB8404626501248568AC42C0
:1025900022DAE51815F9015C002D0ED1E556012D62
:1025A0000BD10D686D1C0D600D6811EB85056C601D
:1025B0000D6811EB85056A650CE0E51815F9015CFD
:1025C000012D07D1E556002D04D1651E0E6811EBD3
:1025D0008606F562641CD9E78468E41814F9014C96
:1025E000002C05D08468641E0D6811EB8505EC6233
:1025F000521CB3E770BC70472DE9F0410024230062
:1026000004689C4204DB002441F823405B1CF7E78C
:1026100001240025002600275FF0FF3C5FF0000E3C
:102620007346D0F800E09E4564DB10EB830EDEF8C5
:1026300054E0AE4509D010EB830EDEF854E0754649
:102640003700B3F1010EF4461E003A00944547DB13
:1026500010EB820EDEF82CE010EB8308D8F8048033
:10266000C6453BDB10EB830EDEF82CE010EB820856
:10267000D8F80480C64531DB10EB830EDEF854E059
:1026800010EB8208D8F8548018F10108C64525D10E
:1026900051F823E0BEF1000F04D151F822E041F8D7
:1026A00023E01BE051F823E051F82280C64515D005
:1026B000D1F828E01EF1010EC1F828E0D1F828E099
:1026C00011EBCE0E51F82380CEF82C80D1F828E003
:1026D00011EBCE0E51F82280CEF83080521CB5E7B7
:1026E00051F823E0BEF1000F02D141F82340641CF1
:1026F0005B1C96E7BDE8F0812DE9F0479EB0040031
:102700000D0016005FF0000931002000FFF712FFF6
:10271000824600200700052F10DA00208046B8F11D
:10272000050F09DA05A8142101FB0700002140F874
:10273000281018F10108F2E77F1CECE700200700E1
:1027400057452ADAB846D04525DA00208146A06AE6
:1027500048451DDB14EBC900C06A401EB84214D1C5
:1027600014EBC900006B401E40450ED105A8142192
:1027700001FB0700012140F8281005A8142101FBE6
:102780000800012140F8271002E019F10109DEE7F5
:1027900018F10108D7E77F1CD2E700A8142100F048
:1027A000BBF901200700BA4577DB00A810EB8700D2
:1027B00050F8040C00286ED1D5F8DC00401C00A9AC
:1027C00011EB870141F8040CD5F8DC002C2101FB4A
:1027D0000050D5F8DC102C2202FB0151096810EBE7
:1027E0008100476000208046D5F8DC002C2101FBE9
:1027F00000500068404549DB00208146D14542DA5F
:1028000000A850F8290000283AD105A8D5F8DC1016
:102810002C2202FB0151D5F8DC202C2303FB0252B1
:10282000126811EB82014968142202FB010010EBCF
:10283000890050F8140C002822D0D5F8DC002C2197
:1028400001FB00500068401CD5F8DC102C2202FB74
:1028500001510860D5F8DC002C2101FB0050D5F8AF
:10286000DC102C2202FB0151096810EB810019F1E8
:1028700001014160D5F8DC00401C00A941F82900A5
:1028800019F10109BAE718F10108ADE7D5F8DC0044
:10289000401CC5F8DC007F1C85E70020070030687D
:1028A00087420ADA00A854F8271010EB810050F88C
:1028B000040C44F827007F1CF1E71EB0BDE8F08748
:1028C000F0B40025002633000E689E421DDB11EB9C
:1028D0008306766DAE4203D011EB8306766D35002C
:1028E00011EB83067668340011EB8306F66AA64284
:1028F00009DB0668876807FB054752F823C007F81D
:1029000006C0641CF0E75B1CDEE7F0BC7047F0B467
:1029100089B006AC002500260027E0C40C3C03ACBF
:10292000002500260027E0C40C3C00AC0025002652
:102930000027E0C40C3C00252A004568AA4238DA8A
:1029400000252B008568AB4231DA0568866806FBF6
:1029500002367557012D08D1069D55190695039D20
:102960005D190395009D6D1C00950568866806FB42
:1029700002367557022D08D1079D55190795049DFC
:102980005D190495019D6D1C01950568866806FB1F
:1029900002367557032D08D1089D55190895059DD8
:1029A0005D190595029D6D1C02955B1CCAE7521CC2
:1029B000C3E7009D2C0000252A00032A0BDA00AD96
:1029C00055F82250A54204DB00AD55F822502C00EA
:1029D0001300521CF1E706AD55F8235095FBF4F5B2
:1029E0000D6003AD55F8235095FBF4F54D6009B02B
:1029F000F0BC7047F0B5F1B0040002943C200390A5
:102A0000502004905FF0FF3052905FF0FF3047900D
:102A100000203C9000200190002000900020050044
:102A20000A2D18DA5FF0FF3052A911EB85014860DA
:102A30005FF0FF3052A911EB8501C8625FF0FF30F3
:102A400052A911EB850148655FF0FF303DA941F8BF
:102A500025006D1CE4E700200600052E22DA5FF059
:102A6000FF303DA911EBC601C8625FF0FF303DA900
:102A700011EBC6010863002005A92C2202FB0611F8
:102A80000860002007000A2F0ADA05A82C2101FBA4
:102A9000060010EB87005FF0FF3141607F1CF2E71A
:102AA000761CDAE752A902A8FFF756FD3DA952A805
:102AB000FFF7A2FD52AA05A93DA8FFF71DFE3DAAFA
:102AC00052A902A8FFF7FCFE00A902A8FFF71FFF0A
:102AD00000200500052D11DA00200600052E08DA79
:102AE000502000FB0560015D08A000F019F8761C7D
:102AF000F4E707A000F014F86D1CEBE7019A0099C9
:102B0000044800F00DF871B0F0BD00002564090024
:102B10000A00000080460000002200F013B8000008
:102B20000EB400B582B003A90091024600AB0121AA
:102B3000034878440A30FDF76FFC06BC5DF810FBD3
:102B4000FD1A000000B500BF1300964694461039E8
:102B500028BFA0E80C50FAD85FEA417C28BF0CC01F
:102B600048BF40F8042BC90728BF20F8022B48BFF4
:102B700000F8012B00BD0000DFF800F00D0EFF1F74
:102B8000DFF8981340B231F8201040B20128C0F2AB
:102B90006A8140B2162880F266810022DFF8803315
:102BA0001A7089B23D2904DA0022DFF874335A70B2
:102BB00077E089B2792904DA0122DFF864335A70A8
:102BC0006FE089B2B52904DA0222DFF854335A7073
:102BD00067E089B2F12904DA0322DFF844335A703E
:102BE0005FE089B2B1F5967F04DC0422DFF8303370
:102BF0005A7056E089B2B1F5B47F04DC0522DFF8E3
:102C000020335A704DE089B2B1F5D27F04DC062240
:102C1000DFF80C335A7044E089B2B1F5F07F04DC80
:102C20000722DFF8FC325A703BE089B2B1F5077F2A
:102C300004DC0822DFF8E8325A7032E089B2B1F5DC
:102C4000167F03DC0922B64B5A702AE089B2B1F52F
:102C5000257F03DC0A22B24B5A7022E089B2B1F51B
:102C6000347F03DC0B22AE4B5A701AE089B2B1F507
:102C7000437F03DC0C22AA4B5A7012E089B2B1F5F3
:102C8000527F03DC0D22A64B5A700AE089B2B1F5DF
:102C9000617F03DC0E22A24B5A7002E00F22A04B90
:102CA0005A7089B21A2903DA00229D4B9A7069E0A2
:102CB00089B2332903DA0122994B9A7062E089B212
:102CC0004C2903DA0222964B9A705BE089B265299F
:102CD00003DA0322924B9A7054E089B27E2903DA18
:102CE00004228F4B9A704DE089B2972903DA0522AE
:102CF0008B4B9A7046E089B2B02903DA0622884BE2
:102D00009A703FE089B2C92903DA0722844B9A708E
:102D100038E089B2E22903DA0822814B9A7031E067
:102D200089B2FB2903DA09227D4B9A702AE089B225
:102D3000B1F58A7F03DA0A22794B9A7022E089B2D0
:102D4000B1F5967F03DC0B22754B9A701AE089B2BD
:102D5000B1F5A37F03DA0C22714B9A7012E089B2AD
:102D6000B1F5AF7F03DC0D226D4B9A700AE089B29A
:102D7000B1F5BC7F03DA0E22694B9A7002E00F2294
:102D8000674B9A7089B21A2903DA0022644BDA7011
:102D900069E089B2332903DA0122614BDA7062E01B
:102DA00089B24C2903DA02225D4BDA705BE089B20A
:102DB000652903DA03225A4BDA7054E089B27E297E
:102DC00003DA0422564BDA704DE089B2972903DA10
:102DD0000522534BDA7046E089B2B02903DA0622A5
:102DE0004F4BDA703FE089B2C92903DA07224C4B16
:102DF000DA7038E089B2E22903DA0822484BDA7047
:102E000031E089B2FB2903DA0922454BDA702AE066
:102E100089B2B1F58A7F03DA0A22414BDA7022E0E7
:102E200089B2B1F5967F03DC0B223D4BDA701AE0D4
:102E300089B2B1F5A37F03DA0C22394BDA7012E0C4
:102E400089B2B1F5AF7F03DC0D22354BDA700AE0B1
:102E500089B2B1F5BC7F03DA0E22314BDA7002E0A1
:102E60000F222F4BDA70704710B50400200040B2DB
:102E7000FFF786FE2B48007810F0FD002949087006
:102E80002848007850F0100026490870B8202649DC
:102E9000087026480078C006FBD424480078C0F3A8
:102EA0008100C0B20228F8D11D48C3781C4882783E
:102EB0001B4841781A480078FFF75EFE174864B255
:102EC00010EB8400807810F007001949087013484F
:102ED00064B210EB8400C07810F01F0050F0400086
:102EE00014490870114800788006FBD50F48007817
:102EF0004006FBD50C48007810F03F000A490870E6
:102F00000A480078C0F38100C0B20328F8D1034812
:102F100064B230F82400C0B210BD00002C0BFF1FBB
:102F2000840BFF1F0140064000400640064006405B
:102F3000044006400540064001B4BDF800000028EA
:102F400005D0BDF80000401EADF80000F5E701B067
:102F5000704780B5012201211A2000F09FF901225B
:102F60000121192000F09AF923211A2000F050FACB
:102F70002321192000F04CFA01BD80B501207A49C7
:102F800008600120794908604FF4C870FFF7D4FF4A
:102F900000207749086077480068002804D10120A4
:102FA00073490860002016E0012071490860002084
:102FB0006D4908604FF4C870FFF7BEFF00206B49F1
:102FC00008606C480068002804D001206849086047
:102FD000002000E0012002BD80B5002063490860A8
:102FE0000020614908604FF4C870FFF7A5FF012079
:102FF0005E4908604FF4C870FFF79EFF01205A49F0
:1030000008604FF4C870FFF797FF01BD80B500203E
:10301000564908604FF4C870FFF78EFF00205249F0
:1030200008604FF4C870FFF787FF01204F49086020
:103030004FF4C870FFF780FF00204C4908604FF440
:10304000C870FFF779FF01BD80B5002047490860CF
:103050004FF4C870FFF770FF0120434908604FF438
:10306000C870FFF769FF0120404908604FF4C8703D
:10307000FFF762FF00203D4908604FF4C870FFF77A
:103080005BFF01BD80B50020384908600020384949
:1030900008604FF4C870FFF74FFF01203349086004
:1030A0004FF4C870FFF748FF32480068002807D087
:1030B00001202F49086000202C490860002006E00C
:1030C00001202B490860002028490860012002BD2A
:1030D00038B5050008242000441EC0B2002818D0CE
:1030E000280603D501202049086002E000201E497F
:1030F00008606D004FF4C870FFF71EFF01201B49E8
:1031000008604FF4C870FFF717FF002017490860E8
:10311000E1E731BD38B508240025002014490860D6
:103120002000441EC0B2002815D06D0000200F49B9
:1031300008604FF4C870FFF7FFFE01200B490860DC
:103140004FF4C870FFF7F8FE0A4800680028E7D07F
:1031500055F00105E4E70120054908600020034916
:103160000860EDB2280032BD6400FE436800FE43F3
:10317000E402FE436402FE4370B504000D00002625
:103180002900C9B2200080B200F00AF8002805D159
:10319000761CF6B2142EF3D1002000E0012070BDA1
:1031A00038B504000D00FFF7E8FE002801D100202B
:1031B00019E04220FFF78CFFFFF764FF002803D1DE
:1031C000FFF70AFF00200EE02000C0B2FFF780FFEB
:1031D000FFF758FF2800C0B2FFF77AFFFFF752FF52
:1031E000FFF7FAFE012032BDF8B504000D0016000D
:1031F00000273200D2B2290089B2200000F00AF87C
:10320000002805D17F1CFFB21E2FF2D1002000E064
:103210000120F2BD70B504000D001600FFF7ADFEF1
:10322000002801D1002037E04220FFF751FFFFF7CF
:1032300029FF002803D1FFF7CFFE00202CE030004B
:10324000C0B2FFF745FFFFF71DFFFFF7C5FEFFF711
:1032500094FE002801D100201EE04320FFF738FF34
:10326000FFF710FF002803D1FFF7B6FE002013E0A0
:10327000ADB2002D0DD0FFF74DFF2070ADB2012D86
:1032800002D1FFF7E1FE01E0FFF7C0FE641C6D1EF6
:10329000EEE7FFF7A1FE012070BD000070B504004D
:1032A0000D0016004FF480712000C0B200F08EF8BF
:1032B0006DB2002D11D14348E4B2611150F82100E4
:1032C0004049E4B2621151F822104969012214F018
:1032D0001F039A409143416136E03A48E4B26111DC
:1032E00050F821003749E4B2621151F822104969BF
:1032F000012214F01F039A4011434161F6B2002EDF
:1033000011D13048E4B2611150F821000068012168
:1033100014F01F02914088432A49E4B2621151F827
:103320002210086010E02748E4B2611150F8210033
:103330000068012114F01F02914008432149E4B2C2
:10334000621151F82210086070BD10B504001D48CC
:10335000E4B2611150F82100406914F01F0102002D
:10336000CA40D00703D47B21174800F09CF81548C9
:10337000E4B2611150F82100012114F01F029140C4
:10338000C16010BD10B504000E48E4B2611150F8E0
:103390002100406914F01F010200CA40D00703D584
:1033A0008C21094800F07FF80648E4B2611150F81A
:1033B0002100006914F01F010200CA4012F0010050
:1033C00010BD0000180BFF1FEC43000010B4294A89
:1033D00012684FF40073C0B24409A3401A43254B4E
:1033E0001A60254AC0B2431152F82320012310F07D
:1033F0001F04A340C2F8A0301F4AC0B2431152F8C4
:103400002320C0B210F01F0342F8231010BC7047F5
:1034100010B4184A12684FF40073C0B24409A340B4
:103420001A43144B1A60144AC0B2431152F82320B5
:10343000012310F01F04A340C2F8A03031F4E06172
:103440000D4AC0B2431152F82320C0B210F01F033E
:1034500052F8232012F4E0621143074AC0B243112C
:1034600052F82320C0B210F01F0342F8231010BC02
:103470007047000038800440880BFF1FDFF800F021
:103480009D0CFF1FDFF800F0C10CFF1FBFF34F8F33
:103490004648006810F4E060454908434349086025
:1034A000BFF34F8FFEE738B504000D00002000F099
:1034B0008DF82A0021003F48FFF732FB002000F082
:1034C000A2F84FF47A7000F0D4F8F2E738B50400AF
:1034D0000D00210049B2032000F0ECF9200032BDBC
:1034E00010B50024042000F011FA042000F044FA82
:1034F000002841D1002000F069F8042000F03CFAD7
:10350000012801D101200400002000F07CF82A48A5
:10351000FFF706FB4FF4FA7000F0ABF8E4B2012CB1
:10352000EBD1042000F028FA0028E6D1042000F0B6
:1035300023FA002806D1002000F065F8642000F08E
:1035400098F8F3E7042000F017FA012806D10020CC
:1035500000F059F8322000F08CF8F3E71748FFF735
:10356000DFFAFFF78BFF642000F083F80020FFF7FD
:1035700089FFFFF78BFFC0E710BD10B51048046846
:10358000012000F023F8012000F03DF80D48E4B2DE
:103590000F2101FB0402E4B221000B48FFF7C0FA3F
:1035A0004FF47A7000F065F8EDE700000CED00E0F4
:1035B0000400FA05C44400006046000064450000B1
:1035C00004ED00E01004FF1F3843000010B50400B4
:1035D00064B2042C07DA01220121174864B2205C8E
:1035E000FFF75CFE0EE0042004002000441E40B201
:1035F000002807D0012201210F4864B2205CFFF7A8
:103600004DFEF2E710BD10B5040064B2042C05DADB
:10361000094864B2205CFFF798FE0CE00420040027
:103620002000441E40B2002805D0034864B2205C4C
:10363000FFF78BFEF4E710BDBC0BFF1F10B50400B5
:10364000002C15D0B4F1807F03D329210F48FFF758
:103650002AFF00200E4908600E48046000200E4931
:10366000086005200A49086009480068C003FBD5C6
:1036700010BD10B504002000441E002804D00748E7
:103680000068FFF7DBFFF6E710BD0000B84200005E
:1036900010E000E014E000E018E000E0B410FF1FCC
:1036A0002DE9F84304000D0064B2002C08D0022C70
:1036B0002CD018D3042C4FD03BD3052C5FD071E015
:1036C000DFF83002006850F48060DFF828120860EC
:1036D0004FF440716620FFF779FE4FF44071672088
:1036E000FFF774FE5EE0DFF80C02006850F4006043
:1036F000DFF8001208604FF440714320FFF766FEC8
:103700004FF440714420FFF761FE4BE0DFF8E40125
:10371000006850F48050DFF8DC1108604FF440710D
:103720006320FFF753FE4FF440716220FFF74EFE17
:1037300038E0DFF8C001006850F40050DFF8B41141
:1037400008604FF440715020FFF740FE4FF4407185
:103750005120FFF73BFE25E0DFF89C01006850F4A4
:103760008060DFF8941108604FF440714E20FFF73D
:103770002DFE4FF440714F20FFF728FE12E0DFF8D6
:103780007801006850F40060DFF86C1108604FF4B5
:1037900040718920FFF71AFE4FF440718820FFF72F
:1037A00015FEFFE7DFF8540164B250F82400C0783A
:1037B00010F0F300DFF8441164B251F82410C8701F
:1037C000DFF8380164B250F824008078DFF82C115B
:1037D00064B251F82410887064B2002C02D064B234
:1037E000012C07D1DFF8180100684FF47A714843C3
:1037F000814606E0DFF80C0100684FF47A71484317
:1038000081462801B9FBF0F00600B6B2B6F5005FBC
:1038100002DB41F6FF700600B9FBF5F0B6B2B0EB83
:1038200006100700BFB2202F03DBDC213648FFF76C
:103830003AFE324864B250F82400007810F0E000FC
:103840008046C6F3042050EA08002C4964B251F8BF
:1038500024100870294864B250F8240046702748A4
:1038600064B250F82400807A10F0E000804617F02F
:103870001F0050EA0800214964B251F824108872F0
:103880001E4864B250F82400007C50F088001B49A8
:1038900064B251F824100874184864B250F8240037
:1038A000C07850F00C00154964B251F82410C8706B
:1038B000BDE8F183114A40B252F820201279120675
:1038C000F8D50E4A40B252F82020D171704770B539
:1038D00004000D0016003000461E002808D095F99F
:1038E000001049B2200040B2FFF7E4FF6D1CF2E780
:1038F00070BD000034800440288004409C0BFF1FF2
:10390000B410FF1FBC10FF1F2844000010B50400B6
:1039100064B2082C0DDA00220021224864B2205C37
:10392000FFF7BCFC03211F4864B2205CFFF770FD69
:1039300014E0082004002000441E40B200280DD0EE
:1039400000220021174864B2205CFFF7A7FC032186
:10395000144864B2205CFFF75BFDECE710BD10B5C6
:103960000400104864B2205CFFF70CFD002801D170
:10397000002000E0012010BD10B50400200040B27E
:10398000FFF7EDFF00280AD10A20FFF772FE2000A2
:1039900040B2FFF7E4FF002801D1002000E0012041
:1039A00010BD0000B40BFF1F2DE9F84380460C004A
:1039B0005FEA981010F00700C0B25FEA4019404675
:1039C000103810F03F00C0B2C000050015EB090030
:1039D0000700E4B217EBC400401E0600F6B2FFB2C7
:1039E000BE420DD3002200213800C0B2FFF756FCC2
:1039F0004FF481713800C0B2FFF7E8FC7F1CEDE79F
:103A0000BDE8F1832DE9F84F04000D0016001F00FA
:103A10009DF92880DDF82C90DDF830A04FFA88F869
:103A2000B8F1000F02D15FF0010B11E04FFA88F8F6
:103A3000B8F1010F02D15FF0020B09E04FFA88F8EC
:103A4000B8F1020F02D15FF0040B01E05FF0100B40
:103A50004FFA88F8B8F1000F05D16748854202D3C4
:103A60006648A84221D24FFA88F8B8F1010F09D16F
:103A70006148854206D36248A84203D315F003008B
:103A8000032812D14FFA88F8B8F1020F09D15A4829
:103A9000854206D35B48A84203D315F003000028F3
:103AA00003D061215848FFF7FEFCB9F5004F03D35E
:103AB00063215548FFF7F7FC5448006850F00200B6
:103AC000524908605248006850F0020050490860AE
:103AD000504864B261010D5064B2600100F1804051
:103AE00010F510400661002064B2610101F18041CF
:103AF00011F5104188805FFA8BFB64B2600100F120
:103B0000804010F51040A0F814B04FFA88F85FEA32
:103B1000082010F4E0604FFA88F818F00701084315
:103B200064B2610101F1804111F51041C88048463D
:103B30004004400C64B2610101F1804111F5104173
:103B4000C88248464004400C64B2610101F18041E2
:103B500011F51041C8833048006830F080002E49CC
:103B600008605FFA8BFB64B2600100F1804010F5E1
:103B70001040C0F808B0002064B2610101F180413A
:103B800011F51041C8605FEACA7002D4D9F1000093
:103B900000E0002064B2610101F1804111F51041A3
:103BA00088614CF20A0064B2610101F1804111F5B3
:103BB00010418883FFB27809313050F080001749F6
:103BC00064B2605416493800C0B2FFF7FFFB594693
:103BD000C9B22800FFF7E8FE124800680121A140A1
:103BE000884310490860104800680121A14008433B
:103BF0000D490860BDE8F18F10F00F4013F10F4040
:103C000012F10F4010F10F40744300004080044057
:103C10003C800440009000400080004000100240C2
:103C2000000101000C80004024800040012110F0C0
:103C30001F029140774A40B2430942F8231070476F
:103C4000012110F01F029140734A40B2430942F82B
:103C50002310704710B504007048046000F081F82C
:103C60000028FBD000F002F8002010BDE0B50120D4
:103C700002904FF416700190002000901B236748BB
:103C8000026867490020FFF7BDFE664800684008EB
:103C90004000644908605720FFF7D2FF624800687F
:103CA00050F00100604908600020FFF7BFFF5F4946
:103CB0001B20FFF78BFB5E491D20FFF787FB07BD2D
:103CC00080B55C4890F90000042818D103205949B8
:103CD00008705720FFF7B4FF5FF000605649086096
:103CE0005048006850F001004E4908605FF00060E5
:103CF00051490860494800685049086005E057206C
:103D0000FFF79EFF02204B49087001BD0120494981
:103D100008704548006850F001004349086070474A
:103D200080B50420434908705FF0FF3042490860C5
:103D30005720FFF77BFF3F4890F9000001280FD084
:103D40003C4890F900000228F5D104203949087058
:103D50005FF0FF30384908605720FFF767FFEAE758
:103D600001BD10B582B0002400208DF80000FFF7DF
:103D7000F0F880211220FFF7FFF9002804D1304825
:103D8000FEF7CEFE002043E03220FFF772FC0B224C
:103D9000012100A8FFF728FA002804D12948FEF7DE
:103DA000BFFE002034E09DF800102748FEF7B8FE63
:103DB000264801782648FEF7B3FE9DF8000021282A
:103DC00025D10020040021480078A4B280B28442AA
:103DD00018D22048A4B210EB440041781D48A4B288
:103DE00010F8140080B2FFF7C7F9002808D119486D
:103DF000A4B210F814101848FEF792FE002007E055
:103E0000641CE0E71548FEF78BFE012000E000206F
:103E100016BD000000E100E080E100E0C010FF1FDF
:103E200050F00F400C80004024800040020102004E
:103E300012010900C00BFF1FA09004401090004029
:103E4000C445000024460000E8440000280CFF1F81
:103E500084450000C40BFF1FA44500000C45000072
:103E6000DFF800F0A7340000DFF800F07336000040
:103E7000F02054490870534800780006FBD551489B
:103E800000787121084201D0002000E00120704735
:103E900080B54D48006850F400204B4908604948FF
:103EA00000780006FBD5F020464908700A20FFF78D
:103EB000DBFF01BD10B582B00400A4B24FF4805006
:103EC00000FB04F000900920404908709DF80200B2
:103ED0003F4908709DF801003E4908709DF80000B8
:103EE0003D490870FFF7C4FF002801D100200EE013
:103EF000A4B2002C0AD15FF0FF327FF001034FF42F
:103F00008161200080B200F003F800E0012016BDBE
:103F1000F0B583B006000F0014001D00B6B24FF4D8
:103F20008050BFB200FB06700190BFB2082097FB23
:103F3000F0F101FB1071002903D0EA212748FFF7B7
:103F40008FFFBFB2B7F5805F03DDEC212348FFF799
:103F500087FF9DF806001E4908709DF805001D4961
:103F600008709DF804001C49087000949DF8030037
:103F70001B4908709DF802001A4908709DF801005D
:103F8000194908709DF800001849087007200F496A
:103F9000087000959DF80300154908709DF802000F
:103FA000144908709DF80100134908709DF800003D
:103FB00012490870FFF75CFF002801D1002000E0E3
:103FC0000120FEBD0000024004F001400700024055
:103FD000060002400500024004000240B043000019
:103FE0000B0002400A0002400900024008000240A3
:103FF0000F0002400E0002400D0002400C00024083
:10400000F0B4114E366834000F4E366856F47F0611
:104010000D4F3E600E0616F0706656EA00761705E4
:1040200017F470073E431F0417F470273E43074FF1
:104030003E6000263500EDB29D4201D26D1CFAE7CC
:10404000014E3460F0BC704700F0014044800440F1
:1040500080B500F095F800F02AF800F00AF8FFF7B4
:104060003FFA012201210420FFF718F900F0A8F817
:10407000FEE780B50420FEF7F7FE334908603248BA
:1040800000684FF47A714843304908602F4800684F
:104090002F490968C1F30361491CB0FBF1F02D49B8
:1040A00008605FF4E1310320FFF7FAFA01BD2DE962
:1040B000F8432948294988420DD000208046B8F5A8
:1040C000826F08D2254850F82800234941F828007B
:1040D00018F10108F3E7204800F0A6F8204807008F
:1040E0002048060020480400A01B80464046B0F14E
:1040F0000108002804D030783870761C7F1CF5E762
:104100001A4881461A480500B5EB0900804640462A
:10411000B0F10108002805D0002089F8000019F14D
:104120000109F4E713481449144A531A98464346C0
:10413000B3F10108002B04D00B780370491C401C1C
:10414000F5E7BDE8F1830000B810FF1FB410FF1FB2
:1041500044800440BC10FF1F0000FF1F000000004F
:104160001004FF1FD81C0000342500005C0EFF1F48
:104170001411FF1F6C0CFF1F603E00005040000038
:1041800080B500F008F80C4800884FF6FE71084032
:104190000949088001BDEFF3118072B64CF220513D
:1041A000064A11804DF62811044A1180C0B2002839
:1041B00000D162B670470000002005400E20054087
:1041C00080B51548FFF746FD0FF22901672000F082
:1041D0003CF80FF24D01102000F037F8FFF7A0FD7A
:1041E0000D48FEF707FC4FF416710B4800F044F839
:1041F000F4E7000038B50024084805685FF0FF3098
:10420000064908601D2004002800E040C00701D5D1
:10421000FFF756FD31BD00005C0EFF1FA09004406B
:1042200080B5FFF773FD01BD10B504004FF40070B9
:1042300094FBF0F101FB1041002903D01E210B4833
:10424000FFF731F90A48046010BD38B504000D00CD
:10425000074800680749884203D030210348FFF728
:1042600022F9044864B240F8245031BD644400008F
:1042700008ED00E00000FF1F38B504000D000C48F9
:104280000088ADF802000B480088ADF8000002225B
:104290000DF102010320FFF71AFB2A002100032081
:1042A000FFF715FB022200A90320FFF710FB31BD29
:1042B000B2110000CA110000453A5C4B36307369F8
:1042C0006E676C65636869705C426561636F6E5CA4
:1042D000426561636F6E5C426561636F6E5C4368EB
:1042E00069705C7372635C4D4B36305F5379735405
:1042F00069636B2E6300000019E050F8041BCB07C4
:1043000044BFA9F101035918121F0023042A41F8E0
:10431000043BF9D25FEA827C0B4604D54FF0000CD7
:10432000A1F800C09B1CD10744BF0021197050F8B0
:10433000042B002AE1D170470A2A2A2A2A646566DA
:1043400061756C745F69737220656E746572656403
:10435000206F6E20766563746F722025642A2A2A86
:104360002A2A0A0A257320496E7465727275707460
:1043700000000000453A5C4B363073696E676C652F
:10438000636869705C426561636F6E5C426561631E
:104390006F6E5C426561636F6E5C436869705C73ED
:1043A00072635C4D4B36305F646D612E63000000BC
:1043B000453A5C4B363073696E676C65636869704B
:1043C0005C426561636F6E5C426561636F6E5C4207
:1043D0006561636F6E5C436869705C7372635C4DAA
:1043E0004B36305F666C6173682E6300453A5C4BF8
:1043F000363073696E676C65636869705C426561CD
:10440000636F6E5C426561636F6E5C426561636F92
:104410006E5C436869705C7372635C4D4B36305FF1
:104420006770696F2E630000453A5C4B36307369E4
:104430006E676C65636869705C426561636F6E5C32
:10444000426561636F6E5C426561636F6E5C436879
:1044500069705C7372635C4D4B36305F756172746A
:104460002E630000453A5C4B363073696E676C65AD
:10447000636869705C426561636F6E5C426561632D
:104480006F6E5C426561636F6E5C436869705C73FC
:1044900072635C6D6973632E6300000010B5074999
:1044A00079441831064C7C44163404E00A68081D2F
:1044B000511888470146A142F8D110BD980000006C
:1044C000A4000000417373657274696F6E206661A9
:1044D000696C656420696E202573206174206C69A5
:1044E0006E652025640A00000A476574204944204F
:1044F00073756363657373EFBC8C53454E534F52B2
:104500002049442069732030782578000A4F5637B7
:1045100037323520526567697374657220436F6E58
:10452000666967205375636365737321000000003B
:104530004EF68851CEF20001086840F47000086021
:10454000BFF34F8FBFF36F8F4FF00070E1EE100A93
:1045500070470000A5FDFFFFB80200005C0EFF1FC2
:10456000000000000ABDF8D0D0BDE2CBF8B2D9D728
:10457000F7A3ACC7EBD6D8D0C2CBA2C8EBB9CCBCA2
:10458000FE0000000A436F6E666967205265676926
:1045900073746572204E756D626572206973202593
:1045A000642000000AE8ADA6E5918A3AE58699E51F
:1045B000AF84E5AD98E599A830782578E5A4B1E811
:1045C000B4A500000AE8ADA6E5918A3A53434342F8
:1045D000E58699E695B0E68DAEE99499E8AFAF002F
:1045E00000F00BF8002801D0FFF758FF0020C0466C
:1045F000C046FFF7E5FD00F002F80120704700F02B
:1046000001B800000746384600F002F8FBE700005A
:1046100080B5C046C046024A11001820ABBEFBE779
:10462000260002000AE8ADA6E5918A3AE8AFBBE5AC
:104630008F964944E5A4B1E8B4A5000038B5044616
:104640000D46284600F006F8A84218BF0024204670
:1046500032BD00000149FEF739BF00BF2C0CFF1F1F
:104660000ABDF8C8EBCBC0D1ADBBB7B5C8B4FDA38C
:10467000A1000000C046C046FFF75AFFFFF7B0FF99
:104680002564092564090000000000000000000006
:10469000000000000000000000000000000000001A
:1046A00000000000FFFFFFFFFFFFFFFF0000000012
:1046B00000000000000000000000000000000000FA
:1046C00000000000000000000000000000000000EA
:1046D000FFFFFFFFFFFF00000000000000000000E0
:1046E00000000000000000000000000000000000CA
:1046F00000000000000000000000000000000000BA
:1047000000000000000000000000000000000000A9
:04000005000046753C
:00000001FF
